:1000000002002E00000000000000000200BCE4F529
:1000100008F509F50AF50BC200C201220000000034
:1000200000000000000000000000000200E37581F5
:10003000201201CCE582600302009A780079007AF0
:10004000007B007C007D00EC4D601C88828983E48D
:1000500093A3A882A9838A828B83F0A3AA82AB830D
:100060001CBCFFE31D80E07582007583007C007D71
:1000700000EC4D600AE4F0A31CBCFFF51D80F27596
:1000800082007583007C007D00EC4D600AE4F0A3E3
:100090001CBCFFF51D80F212000E1201AB80FEC2E7
:1000A0008C5389F0438901538EF8438E04758CFC80
:1000B000758A4CC28DD2A9D2AFD28C22C28C758CDB
:1000C000FC758A4CB2A1D28C32C2CA438E30C2CBEC
:1000D00075CBB575CAFC75CFB575CEFCD2ADD2AFB8
:1000E000D2CA22C2CAC2ADC2CFB2A2108C0280064E
:1000F000C2A9C2A1800C758CFC758A4CC28DD2A994
:10010000D28CD2ADD2CA32AA82438E407592B475D7
:1001100093FF8592948593957591047B00C3EB9A28
:10012000500BE59130E7FB53917F0B80F075910008
:1001300022AA82AB837C007D00C3EC9AED9B502BFE
:100140007E00BE0400501D7582FAC002C003C004C8
:10015000C005C006120107D006D005D004D003D0D8
:10016000020E80DE0CBC00D10D80CE2220B00E909D
:10017000003212013120B00530B0FDB20022300053
:100180000DC2CAC2ADC28CC2A9C2A1C2A022758CC6
:10019000FC758A4CC28DD2A9D28C75CFB575CEFCB8
:1001A000C2CFC2CED2ADD2CAD2A022120213120046
:1001B0009F1200C9A200920112016CA2002001014D
:1001C000B3400312017EA200920180EC75A7007576
:1001D00097DE7597AD43FF8075EF0275A71075C167
:1001E0002075A70075A90075A900E5A930E7FB7582
:1001F000A90375A903E5A930E7FB75A70043A4147B
:1002000075D4C375E10175E20075E34175A700750A
:1002100082002243F30743A60743CC0743F401536C
:100220009CFE43B00153E37F43E340C2A1220000A0
:00000001FF
