:1000000002007E0000000000000000020126000047
:10002000000000020387000000000002014DE4F51B
:1000300011F512F513F51475150B751600C2087538
:100040000801C209750900750A00750B00750C00DE
:10005000750D00750E00750F00751000C20AC20CF8
:10006000220000000000000000000000000000006E
:1000700000000000000000000000000204A47581E0
:1000800021120304E58260030200EA780079007A15
:10009000007B007C007D00EC4D601C88828983E43D
:1000A00093A3A882A9838A828B83F0A3AA82AB83BD
:1000B0001CBCFFE31D80E07582007583007C007D21
:1000C00001EC4D600AE4F0A31CBCFFF51D80F27545
:1000D00082007583007C007D00EC4D600AE4F0A393
:1000E0001CBCFFF51D80F212002E1202CB80FE75A3
:1000F0008CFC758A4CC28DD2A9D28C22C28CC2A92A
:10010000C2A122858216D20822C28C5389F043896B
:1001100001538EF8438E04758CFC758A4CC28DC2D7
:10012000A9D2AFC28C22C28C758CFC758A4CB2A14C
:10013000D28C32C2CA438E30C2CB75CBB575CAFCE5
:1001400075CFB575CEFCD2ADD2AFD2CA22C020C019
:10015000E0C0F0C082C083C002C003C004C005C0BC
:1001600006C007C000C001C0D075D000C2CAC2AD71
:10017000C2CFB2A2740BB515081008028003751522
:1001800000E515FA24F45003020202EA2A2A90013B
:1001900092730201B60201BE0201BE0201BE02015B
:1001A000BE0201BE0201BE0201BE0201BE0201F496
:1001B0000201FC0202021200EF7515018044AA152B
:1001C0007B001ABAFF011B8AF005F07A017B0080E0
:1001D00006EA2AFAEB33FBD5F0F7AC167D00EC52B9
:1001E00002ED5203EA4B60051200EF80031200FC9F
:1001F0000515800E1200EF75150A80061200FC75B9
:10020000150BD2ADD2CAD0D0D001D000D007D006C5
:10021000D005D004D003D002D083D082D0F0D0E07B
:10022000D02032AA82438E407592B87593FF859292
:10023000948593957591047B00C3EB9A500BE591DF
:1002400030E7FB53917F0B80F075910022AA82ABBF
:10025000837C007D00C3EC9AED9B502B7E00BE0496
:1002600000501D7582FAC002C003C004C005C0065C
:10027000120223D006D005D004D003D0020E80DEB7
:100280000CBC00D10D80CE2220B01590003212029D
:100290004D20B00C30B0FDE508B40100E433F508A2
:1002A00022E508600BC2CAC2ADC28CC2A9C2A1229B
:1002B000758CFC758A4CC28DD2A9D28C75CFB57560
:1002C000CEFCC2CFC2CED2ADD2CA2212034B120193
:1002D000091201337582001201039001F412024DDC
:1002E0007A007B00C3EA940AEB6480948050EB852B
:1002F0000882C002C003120103D003D0020ABA0070
:10030000E30B80E075A7007597DE7597AD43FF801E
:1003100075EF0275A71075C12075A70075A9007546
:10032000A900E5A930E7FB75A90375A903E5A93084
:10033000E7FB75A70043A41475D4C375E10175E20A
:100340000075E34175A7007582002243F30643A6BA
:100350000643CC0243F401539CFE43B00153E37FB8
:1003600043E340C2A122AAA775A700AB8953030F9C
:100370004303208B89758DE6858D8BD28E75981001
:10038000D2ACD2AF8AA722C0E0C082C083C002C074
:1003900003C0D075D000AAA775A7001098028016D8
:1003A000E50B2440F582E43400F583E599FBF0E5A4
:1003B0000B04543FF50B1099028020E509B50A02A1
:1003C0008017E50A2400F582E43400F583E0F5990E
:1003D000E50A04543FF50A8002C20A8AA7D0D0D0A9
:1003E00003D002D083D082D0E032AA82ABA775A717
:1003F00000AC097D000CBC00010D53043F7D00AE34
:100400000A7F00ECB50606EDB5070280E4C2AFE551
:10041000092400F582E43400F583EAF0E509045488
:100420003FF509200A04D20AD299D2AF8BA722AA9B
:1004300082AB83ACF08A828B838CF01205C3FD60A3
:10044000188D820ABA00010BC002C003C004120357
:10045000EAD004D003D00280DC22E50CB50B03D334
:100460008001C3920BB32212045A50FBE50C2440C6
:10047000F582E43400F583E0FAE50C04543FF50C12
:100480008A8222AAA775A72075C81075930C759645
:10049000FE7595C875944375A700ABF34303018BB4
:1004A000F38AA722C0E0C082C083C002C003C00498
:1004B000C0D075D000AAA775A720ABC87C00EB30D0
:1004C000E01953C8FEE50F24C0F582E43400F5833B
:1004D000E592FBF0E50F04543FF50FABC87C00EB51
:1004E00030E12353C8FDE50DB50E028017E50E245B
:1004F00080F582E43400F583E0F592E50E04543F84
:10050000F50E8002C20C8AA7D0D0D004D003D0024E
:10051000D083D082D0E032AA82ABA7AC0D7D000C94
:10052000BC00010D53043F7D00AE0E7F00ECB5060C
:1005300006EDB5070280E4C2AFE50D2480F582E444
:100540003400F583EAF0E50D04543FF50D200C1A54
:10055000D20C75A720E50E2480F582E43400F583E3
:10056000E0F592E50E04543FF50ED2AF8BA722AA18
:1005700082AB83ACF08A828B838CF01205C3FD6062
:10058000188D820ABA00010BC002C003C004120514
:1005900017D004D003D00280DC22E510B50F03D3BE
:1005A0008001C3920DB32212059A50FBE51024C0BE
:1005B000F582E43400F583E0FAE51004543FF510C9
:1005C0008A822220F71430F6148883A88220F50747
:1005D000E6A88375830022E280F7E49322E02200FC
:00000001FF
