:1000000002002E00000000000000000200BCE4F529
:1000100008F509F50AF50B220000000000000000B9
:1000200000000000000000000000000200E37581F5
:100030000B120112E582600302009A780079007ABF
:10004000007B007C007D00EC4D601C88828983E48D
:1000500093A3A882A9838A828B83F0A3AA82AB830D
:100060001CBCFFE31D80E07582007583007C007D71
:1000700000EC4D600AE4F0A31CBCFFF51D80F27596
:1000800082007583007C007D00EC4D600AE4F0A3E3
:100090001CBCFFF51D80F212000E12010780FEC28B
:1000A0008C5389F0438901538EF8438E04758CFC80
:1000B000758A4CC28DD2A9D2AFD28C22C28C758CDB
:1000C000FC758A4CB2A1D28C32C2CA438E30C2CBEC
:1000D00075CBB575CAFC75CFB575CEFCD2ADD2AFB8
:1000E000D2CA22C2CAC2ADC2CFB2A2108C0280064E
:1000F000C2A9C2A1800C758CFC758A4CC28DD2A994
:10010000D28CD2ADD2CA3212015912009F1200C94C
:1001100080FE75A7007597DE7597AD43FF8075EF7C
:100120000275A71075C12075A70075A90075A900F3
:10013000E5A930E7FB75A90375A903E5A930E7FB3D
:1001400075A70043A41475D4C375E10175E2007569
:10015000E34175A7007582002243F30643A60643D8
:10016000CC0243E340C2A1220000000000000000D6
:00000001FF
