:1000000002000E00000000000000000200A6758142
:100010000B1200B7E582600302007A780079007A5B
:10002000007B007C007D00EC4D601C88828983E4AD
:1000300093A3A882A9838A828B83F0A3AA82AB832D
:100040001CBCFFE31D80E07582007583007C007D91
:1000500000EC4D600AE4F0A31CBCFFF51D80F275B6
:1000600082007583007C007D00EC4D600AE4F0A303
:100070001CBCFFF51D80F212007F1200AF80FEE471
:10008000F508F509F50AF50B22C28C5389F043896E
:1000900001538EF8438E04758CFC758A4CC28DD248
:1000A000A9D2AFD28C22758CFC758A4CB2A13212C7
:1000B00000FE12008980FE75A7007597DE7597AD6A
:1000C00043FF8075EF0275A71075C12075A70075F5
:1000D000A90075A900E5A930E7FB75A90375A90377
:1000E000E5A930E7FB75A70043A41475D4C375E1F7
:1000F0000175E20075E34175A7007582002243F3A4
:100100000243A60243CC0243E340C2A12200000006
:00000001FF
