:1000000002002E00000000000000000200BCE4F529
:1000100009F50AF50BF50C220000000000000000B5
:1000200000000000000000000000000200DC7581FC
:100030000C12025BE582600302009A780079007A74
:10004000007B007C007D00EC4D601C88828983E48D
:1000500093A3A882A9838A828B83F0A3AA82AB830D
:100060001CBCFFE31D80E07582007583007C007D71
:1000700000EC4D600AE4F0A31CBCFFF51D80F27596
:1000800082007583007C007D00EC4D600AE4F0A3E3
:100090001CBCFFF51D80F212000E12021D80FEC274
:1000A0008C5389F0438901538EF8438E04758CFC80
:1000B000758A4CC28DD2A9D2AFD28C22C28C758CDB
:1000C000FC758A4CB2A1D28C32438E3075C8007553
:1000D000CBB575CAFCD2ADD2AFD2CA22C2CAC2ADAC
:1000E000B2A9B28C32438E407593FF7592B8759564
:1000F000FF7594B875910022AA82AB837591047C38
:10010000007D00C3EC9AED9B500FE59130E7FB5367
:10011000917F0CBC00ED0D80EA75910022AA82ABA4
:10012000837C007D00C3EC9AED9B501D9003E8C0DA
:1001300002C003C004C0051200F8D005D004D003EB
:10014000D0020CBC00DF0D80DC22C28D758CFC75EA
:100150008A4CD2A9D28C22C28CC2A9C2A122AA8264
:10016000AB83C002C00312014AD003D0028A828B43
:10017000831200F8020157AA82AB83C002C00312A7
:100180000157D003D0028A828B830200F8AA8290A2
:100190000232C00212015ED002EA600690069802A6
:1001A0000177900233020177AA827B00BB080050DE
:1001B0001774015AF582C002C00312018DD003D01A
:1001C00002EAC313FA0B80E422AA82902328C00219
:1001D00012015E901194120177D0028A82C002123D
:1001E00001A8D002EAF4F5821201A8850882120162
:1001F000A8E508F4F5821201A890023212015E907F
:10020000023302017790232812015E9008CA12017E
:100210007790023212015E9002330201771202AB34
:1002200012009F1200E575080C7582001201C9903A
:10023000002812011D12020590002812011D120251
:100240000590002812011D12020575080C75820028
:100250001201C99000C812011D80EF75A7007597A3
:10026000DE7597AD43FF8075EF0275A71075C1204D
:1002700075A70075A90075A900E5A930E7FB75A968
:100280000375A903E5A930E7FB75A70043A4144350
:10029000A60243F30275D4C343CC0275E10175E2B3
:1002A0000075E34175A7007582002275A700C2A101
:1002B000220000000000000000000000000000001C
:00000001FF
