:100000000C94B5000C94D2000C94D2000C94D20045
:100010000C94D2000C94D2000C94D2000C94D20018
:100020000C94D2000C94D2000C94D2000C94D20008
:100030000C94D2000C94D2000C94D2000C94D200F8
:100040000C94D2000C94D2000C94D2000C94D200E8
:100050000C94D2000C94D2000C94D2000C94D200D8
:100060000C94D2000C94D2006E616E00696E660032
:1000700000407A10F35A00A0724E18090010A5D45F
:10008000E80000E87648170000E40B54020000CABC
:100090009A3B000000E1F505000080969800000002
:1000A00040420F000000A086010000001027000061
:1000B0000000E803000000006400000000000A00E7
:1000C000000000000100000000002C76D888DC67EA
:1000D0004F0823DFC1DFAE59E1B1B796E5E3E45342
:1000E000C63AE651997696E8E6C28426EB898C9B5F
:1000F00062ED407C6FFCEFBC9C9F40F2BAA56FA5FF
:10010000F490055A2AF75C936B6CF9676DC11BFC80
:10011000E0E40D47FEF520E6B500D0ED902E03009B
:10012000943577050080841E080000204E0A0000E8
:1001300000C80C333333330F986E12831141EF8DA7
:100140002114893BE65516CFFEE6DB18D1844B38E7
:100150001BF77C1D901DA4BBE424203284725E2218
:100160008100C9F124ECA1E53D2711241FBECFEF8A
:10017000D8E0DEBFCDBF11E0A0E0B1E0E4E5F5E1FD
:1001800002C005900D92AA35B107D9F721E0AAE582
:10019000B1E001C01D92A83CB207E1F70E946902DC
:1001A0000C94A80A0C940000519A50981092C50023
:1001B00080E18093C400E1ECF0E08081886080837E
:1001C00080818061808386E08093C200E0ECF0E073
:1001D00080818260808308958091C00087FFFCCF7A
:1001E0008091C60008959091C00095FFFCCF809348
:1001F000C6000895CF93DF93EC018991882319F00D
:100200000E94F300FACFDF91CF910895CF93DF934F
:100210008AE591E09093BF018093BE01C091BE0139
:10022000D091BF010E94EC0088838D3031F021967F
:10023000D093BF01C093BE01F1CF18828AE591E04F
:10024000DF91CF91089584B1836084B98AB1886DBC
:100250008AB90895CF93DF93EA010E9485072BE7BF
:1002600034E14EE85FE30E9413089B01AC0160E0BB
:1002700078EC8FEA99E40E94130720E03CE449E916
:1002800056E40E94A606688379838A839B83DF9164
:10029000CF910895CF93DF93EA010E94850722E66C
:1002A0003CE04AE85EE30E94130820E030E04AE7C1
:1002B00054E40E9413079B01AC0160E070E080E809
:1002C0009FE30E94130720E030E04AE754E40E94D5
:1002D0001308688379838A839B83DF91CF91089584
:1002E000CF93DF93EA01A7E1B3E79B01AC010E9442
:1002F00080080E9485079B01AC0160E078EC8FEAE2
:1003000099E40E94130720E030E04AE754E40E9499
:100310001308688379838A839B83DF91CF91089543
:100320005C9A85ED8A95F1F700005C980895CF936B
:10033000DF931F92CDB7DEB787FF02C0289A01C0B6
:10034000289886FF02C05F9A01C05F9885FF02C0AF
:100350005E9A01C05E9884FF02C0299A01C0299864
:1003600089830E94900195ED9A95F1F700008981AB
:1003700083FF02C0289A01C0289882FF02C05F9ABA
:1003800001C05F9881FF02C05E9A01C05E9880FF45
:1003900002C0299A01C029980F90DF91CF910C9447
:1003A00090015B9A0E9497018FE39FE10197F1F71B
:1003B00000C0000008955B980E9497018FE19EE4C1
:1003C0000197F1F700C0000008955C985B982FEF4B
:1003D00080E792E0215080409040E1F700C00000AB
:1003E00028985F985E9A299A0E9490018FE19EE476
:1003F0000197F1F700C0000028985F985E9A299A4B
:100400000E9490018FE99FE00197F1F700C0000082
:1004100028985F985E9A299A0E9490018FE99FE040
:100420000197F1F700C0000028985F985E9A29981C
:100430000E9490018FE99FE00197F1F700C0000052
:1004400088E20E94DB0188E00E94DB0181E00E94DB
:10045000DB018FE39FE10197F1F700C0000086E028
:100460000E94DB018CE00C94DB01DF92EF92FF92A3
:100470000F931F93CF93DF937C01D42E623011F042
:1004800080E801C080EC0E94DB018FE19EE40197CF
:10049000F1F700C000008701E801CE19DF09F8017B
:1004A00081918F01882319F00E94D101F5CFDD20C1
:1004B00041F0C031D1052CF480E20E94D101219697
:1004C000F8CFDF91CF911F910F91FF90EF90DF90C8
:1004D0000895CF93DF93CDB7DEB7E5970FB6F894C5
:1004E000DEBF0FBECDBF0E9423010E94E5010E9426
:1004F000D4002FEF89E698E1215080409040E1F749
:1005000000C0000080E091E00E94F70941E061E056
:100510008BE191E00E94350241E062E08BE291E0E4
:100520000E9435029924939437E0832E49E3A42E48
:1005300041E0B42ECE0101966C0157E4E52E51E066
:10054000F52E8E010F5D1F4F55985D98109280001B
:1005500010928100109280001092C1011092C0018F
:10056000109285001092840096BA90926F00789451
:10057000809281009FEF23ED80E3915020408040E6
:10058000E1F700C00000109281002FB7F89440906E
:10059000C0015090C1018091840090918500B09B72
:1005A00007C09FEF491A590A8091840090918500F5
:1005B0002FBF10926F00612C712C320155244424FE
:1005C000A0E0B0E0482A592A6A2A7B2AAE014E5C94
:1005D0005F4FC301B2010E9470018DA98F938CA956
:1005E0008F938BA98F938AA98F937F926F925F923B
:1005F0004F92BF92AF92DF92CF920E94270AC6011C
:100600000E94FA008DA98F938CA98F938BA98F9349
:100610008AA98F93FF92EF921F930F930E94270A4C
:1006200041E061E08CE491E00E94350241E062E04B
:10063000C8010E9435022FEF89E698E121508040E1
:100640009040E1F700C000000FB6F894DEBF0FBE87
:10065000CDBF7ACFA3E1B0E0E0E3F3E00C948B08E8
:100660006C014B012A01FC0117821682838181FFF4
:1006700043C3AE014F5F5F4F3A01F6019381F4012E
:1006800093FD859193FF81914F01882309F430C335
:10069000853239F493FD859193FF81914F01853225
:1006A00039F4B60190E00E94BF0952012501E5CF5F
:1006B00010E0F12C20E02032A0F48B3269F030F40D
:1006C000803259F0833269F420612CC08D3239F0C8
:1006D000803339F4216026C02260246023C0286062
:1006E00021C027FD27C030ED380F3A3078F426FFBF
:1006F00006C0FAE01F9F300D1124132F13C04AE0EB
:10070000F49E300D1124F32E20620CC08E3221F4A1
:1007100026FDEEC2206406C08C3611F4206802C0AB
:10072000883641F4F40193FD859193FF81914F0147
:100730008111C1CF9BEB980F933018F42061805E3C
:1007400006C09BE9980F933008F071C12F7E26FFF9
:1007500016E02F73322E853619F42064322E08C02D
:10076000863621F4F22FF0683F2E02C0111111508D
:1007700037FE07C01C3350F4EE24E394E10E27E06B
:100780000BC0183038F027E017E005C027E04CE335
:10079000E42E02C0212FE12C520144E0A40EB11C32
:1007A000F20160817181828193810E2DA3010E94EB
:1007B000D1082C01098100FF02C003FF07C031FCF2
:1007C00008C032FE09C030E2232E07C02DE2222EDF
:1007D00004C09BE2292E01C0212C802F8C7019F0BF
:1007E000211068C2A8C237FE0FC0E40C04FF04C089
:1007F0008A81813309F4EA941E1474F5F8E0FE1539
:1008000078F588E0E82E2CC036FC2AC0812F90E0D5
:10081000841595059CF02CEF42162FEF520674F0CC
:10082000432D4068342E0AC0E2E0F0E0EC0FFD1FDB
:10083000E10FF11D8081803319F411501111F4CFB3
:1008400037FE0EC0EE24E394E10E812F90E04816AF
:1008500059062CF4141904C0EE24E39401C010E0EE
:1008600037FE06C01414150434F4C201019605C005
:1008700085E090E002C081E090E021100196112314
:1008800031F0212F30E02F5F3F4F820F931F2F2D2C
:1008900030E08217930714F4F81A01C0F12C832D6D
:1008A000897049F4FF2039F0B60180E290E00E949F
:1008B000BF09FA94F7CF222029F0B601822D90E0EB
:1008C0000E94BF0933FC09C0FF2039F0B60180E364
:1008D00090E00E94BF09FA94F7CF37FE5AC0942DDA
:1008E000852D57FE02C090E080E0292E382E20E0B2
:1008F00030E0A2014E1951095D874C87A2014219CF
:1009000053095F874E87612F70E044275527461BA8
:10091000570B598B488B5FEF2516350649F4B60106
:100920008EE290E02A8B3B8B0E94BF093B892A898B
:10093000421453046CF04C855D854215530544F414
:10094000EE85FF85E20FF31FE60DF71D818101C0E3
:1009500080E351E0251A31082F5F3F4F48895989BC
:10096000241635064CF0B60190E02A8B3B8B0E9492
:10097000BF092A893B89CFCF2414350439F49A81E1
:10098000963318F4953311F404FF81E3B60190E037
:100990004BC08A81813309F00F7EB60190E00E943E
:1009A000BF09111105C034FC18C085E690E017C0DE
:1009B000B6018EE290E00E94BF0982E0EE24E3944B
:1009C000E80EF301E80FF11D8081B60190E00E946E
:1009D000BF0911508E2D91F7E6CF85E490E0B60166
:1009E0000E94BF0957FC05C04114510439F404FFAB
:1009F00005C05194419451088DE201C08BE2B601CB
:100A000090E00E94BF0980E39AE0491651042CF05F
:100A10008F5F5AE0451A5108F7CFB60190E00E9467
:100A2000BF09B601C201C0960E94BF0957C18336F3
:100A300031F0833779F0833509F058C021C0520175
:100A4000E2E0AE0EB11CF2018081898301E010E08A
:100A5000230114C05201F2E0AF0EB11CF20140803C
:100A6000518026FF03C0612F70E002C06FEF7FEF5F
:100A7000C2012A8B0E94B4098C012A892F7715C0E4
:100A80005201F2E0AF0EB11CF2014080518026FF0E
:100A900003C0612F70E002C06FEF7FEFC2012A8BAD
:100AA0000E94A9098C012A892068322E23FD1AC0D0
:100AB0008F2D90E008171907A8F4B60180E290E0A6
:100AC0000E94BF09FA94F4CFF20137FC859137FEFA
:100AD00081912F01B60190E00E94BF09F110FA94B4
:100AE000015011090115110579F7F8C0843611F08C
:100AF000893659F5520127FF09C0F4E0AF0EB11C49
:100B0000F20160817181828193810AC0F2E0AF0EAF
:100B1000B11CF20160817181072E000C880B990BCA
:100B20002F76322E97FF09C090958095709561952C
:100B30007F4F8F4F9F4F2068322E2AE030E0A30175
:100B40000E944A0AE82EE6183FC0022F853721F49A
:100B50000F7E2AE030E01DC0097F8F3691F018F437
:100B6000883559F0C5C0803719F0883711F0C0C0FA
:100B7000006104FF09C0046007C024FF08C00660CC
:100B800006C028E030E005C020E130E002C020E1EE
:100B900032E0520107FF09C0F4E0AF0EB11CF201D0
:100BA000608171818281938108C0F2E0AF0EB11C37
:100BB000F2016081718180E090E0A3010E944A0A05
:100BC000E82EE6180F77302E36FE0BC0332D3E7F11
:100BD000E11650F434FE0AC032FC08C0332D3E7ECC
:100BE00005C00E2D332D03C00E2D01C0012F34FF83
:100BF0000CC0FE01EE0DF11D8081803311F4397EB1
:100C000008C032FF05C00E5F04C0832F867809F04C
:100C10000F5F33FD13C030FF06C01E2D0F1518F4F3
:100C20001F0D101B0F2D0F1568F4B60180E290E028
:100C30003B8B0E94BF090F5F3B89F5CF0F1510F466
:100C4000F01A01C0F12C34FF12C0B60180E390E02D
:100C50003B8B0E94BF093B8932FF17C031FD03C0A7
:100C600088E790E002C088E590E0B6010CC0832FD1
:100C7000867859F031FF02C08BE201C080E237FD77
:100C80008DE2B60190E00E94BF09E11638F4B6018A
:100C900080E390E00E94BF091150F7CFEA94F3017E
:100CA000EE0DF11D8081B60190E00E94BF09E110B8
:100CB000F5CF14C0F4E0FF1558F584E0F81A33FEC0
:100CC0001EC0211026C003FF2AC008E610E0F32D45
:100CD000F0713F2EF8018491811124C0FF2009F4A6
:100CE000E5CCB60180E290E00E94BF09FA94F6CF0D
:100CF000F6018681978126C08FEF9FEF23C0B60152
:100D000080E290E00E94BF09FA94F110F8CFD9CFA9
:100D1000F12CB601822D90E00E94BF09D4CF0CE6E1
:100D200010E0D5CF31108052B60190E00E94BF098B
:100D30000F5F1F4FCFCF23E02F1510F483E0BECFFE
:100D4000F12CC1CF6396E2E10C94A7085058BB2761
:100D5000AA270E94BE060C94D9070E94CB0738F040
:100D60000E94D20720F039F49F3F19F426F40C9426
:100D7000C8070EF4E095E7FB0C94C207E92F0E9428
:100D8000EA0758F3BA17620773078407950720F03C
:100D900079F4A6F50C940C080EF4E0950B2EBA2FFE
:100DA000A02D0B01B90190010C01CA01A001112471
:100DB000FF27591B99F0593F50F4503E68F11A161D
:100DC000F040A22F232F342F4427585FF3CF4695AE
:100DD00037952795A795F0405395C9F77EF41F16D0
:100DE000BA0B620B730B840BBAF09150A1F0FF0F9A
:100DF000BB1F661F771F881FC2F70EC0BA0F621F86
:100E0000731F841F48F4879577956795B795F79575
:100E10009E3F08F0B0CF9395880F08F09927EE0F0A
:100E20009795879508950E9427070C94D9070E94EB
:100E3000D20758F00E94CB0740F029F45F3F29F019
:100E40000C94C20751110C940D080C94C8070E9411
:100E5000EA0768F39923B1F3552391F3951B550BDA
:100E6000BB27AA2762177307840738F09F5F5F4F7D
:100E7000220F331F441FAA1FA9F335D00E2E3AF0BC
:100E8000E0E832D091505040E695001CCAF72BD0D4
:100E9000FE2F29D0660F771F881FBB1F2617370725
:100EA0004807AB07B0E809F0BB0B802DBF01FF2757
:100EB00093585F4F3AF09E3F510578F00C94C2076B
:100EC0000C940D085F3FE4F3983ED4F38695779534
:100ED0006795B795F7959F5FC9F7880F911D969510
:100EE000879597F90895E1E0660F771F881FBB1F6C
:100EF000621773078407BA0720F0621B730B840B19
:100F0000BA0BEE1F88F7E0950895E89409C097FBA7
:100F10003EF490958095709561957F4F8F4F9F4FD0
:100F20009923A9F0F92F96E9BB279395F695879514
:100F300077956795B795F111F8CFFAF4BB0F11F4D7
:100F400060FF1BC06F5F7F4F8F4F9F4F16C088237E
:100F500011F096E911C0772321F09EE8872F762FB4
:100F600005C0662371F096E8862F70E060E02AF0F5
:100F70009A95660F771F881FDAF7880F96958795E1
:100F800097F9089597F99F6780E870E060E0089509
:100F90009FEF80EC089500240A9416161706180691
:100FA0000906089500240A9412161306140605066D
:100FB0000895092E0394000C11F4882352F0BB0FFE
:100FC00040F4BF2B11F460FF04C06F5F7F4F8F4F61
:100FD0009F4F089557FD9058440F551F59F05F3F9C
:100FE00071F04795880F97FB991F61F09F3F79F04B
:100FF00087950895121613061406551FF2CF4695CD
:10100000F1DF08C0161617061806991FF1CF86954E
:101010007105610508940895E894BB276627772732
:10102000CB0197F908950E9426080C94D9070E94D5
:10103000CB0738F00E94D20720F0952311F00C94D2
:10104000C2070C94C80711240C940D080E94EA07EB
:1010500070F3959FC1F3950F50E0551F629FF0010B
:10106000729FBB27F00DB11D639FAA27F00DB11D24
:10107000AA1F649F6627B00DA11D661F829F2227AD
:10108000B00DA11D621F739FB00DA11D621F839F34
:10109000A00D611D221F749F3327A00D611D231F0A
:1010A000849F600D211D822F762F6A2F11249F5758
:1010B00050409AF0F1F088234AF0EE0FFF1FBB1F5B
:1010C000661F771F881F91505040A9F79E3F51051A
:1010D00080F00C94C2070C940D085F3FE4F3983E37
:1010E000D4F3869577956795B795F795E7959F5FC4
:1010F000C1F7FE2B880F911D9695879597F9089556
:101100000E94C208A59F900DB49F900DA49F800DD2
:10111000911D112408952F923F924F925F926F92EA
:101120007F928F929F92AF92BF92CF92DF92EF9277
:10113000FF920F931F93CF93DF93CDB7DEB7CA1BF8
:10114000DB0B0FB6F894DEBF0FBECDBF09942A8823
:10115000398848885F846E847D848C849B84AA84CB
:10116000B984C884DF80EE80FD800C811B81AA8158
:10117000B981CE0FD11D0FB6F894DEBF0FBECDBF23
:10118000ED010895A29FB001B39FC001A39F700D10
:10119000811D1124911DB29F700D811D1124911D7F
:1011A0000895283008F027E03327DA01990F311D20
:1011B00087FD916000966105710539F432602E5FFC
:1011C0003D9330E32A95E1F708959F3F30F0803852
:1011D0007105610509F03C5F3C5F3D93913008F07B
:1011E0008068911DDF93CF931F930F93FF92EF922F
:1011F000192F987F9695E92F96959695E90FFF27D9
:10120000E653FF4F99273327EE24FF24A701E70178
:1012100005900894079428F4360FE71EF81E491F1E
:10122000511D660F771F881F991F0694A1F705901F
:10123000079428F4E70EF81E491F561FC11D770FAB
:10124000881F991F661F0694A1F70590079428F43C
:10125000F80E491F561FC71FD11D880F991F661F03
:10126000771F0694A1F70590079420F4490F561FA5
:10127000C71FD81F990F661F771F881F0694A9F7ED
:1012800084911095177041F0D695C795579547955D
:10129000F794E7941A95C1F7E0E7F0E068941590A9
:1012A000159135916591959105907FE27395E118BF
:1012B000F10A430B560BC90BD009C0F7E10CF11E24
:1012C000431F561FC91FD01D7EF4703311F48A9539
:1012D000E6CFE894015030F0080F0AF40027021717
:1012E00008F4202F2395022F7A3328F079E37D9399
:1012F0002A95E9F710C07D932A9589F6069497956B
:101300006795379517951794E118F10A430B560B1B
:10131000C90BD00998F023957E9173957A3308F024
:1013200070E37C932013B8F77E9170617D9330F069
:10133000839571E37D9370E32A95E1F71124EF9093
:10134000FF900F911F91CF91DF91992787FD909585
:101350000895FC010590615070400110D8F7809508
:1013600090958E0F9F1F0895FC0161507040019071
:101370000110D8F7809590958E0F9F1F08950F93B9
:101380001F93CF93DF93FB01238121FD03C08FEFD8
:101390009FEF28C022FF16C04681578124813581E6
:1013A0004217530744F4A081B1819D012F5F3F4F45
:1013B000318320838C93268137812F5F3F4F378382
:1013C000268310C0EB01092F182F0084F185E02D32
:1013D0000995892BE1F68E819F8101969F838E83EB
:1013E000812F902FDF91CF911F910F9108950F932F
:1013F0001F93CF93DF93E091C401F091C501238146
:1014000021FF1BC08C01D0E0C0E0F80181918F0169
:101410006091C4017091C501DB011896ED91FC91BA
:101420001997882331F00995892B79F3DFEFCFEFF6
:10143000ECCF8AE00995892B19F08FEF9FEF02C05E
:101440008D2F9C2FDF91CF911F910F910895AEE0CA
:10145000B0E0EDE2FAE00C9499080D891E8986E06F
:101460008C831A8309838FEF9FE79E838D83AE0160
:10147000475E5F4F6F89788DCE0101960E942A03E7
:101480002F813885F801E20FF31F10822E96E4E0D9
:101490000C94B508FA01AA27283051F1203181F1C6
:1014A000E8946F936E7F6E5F7F4F8F4F9F4FAF4F6C
:1014B000B1E03ED0B4E03CD0670F781F891F9A1F7F
:1014C000A11D680F791F8A1F911DA11D6A0F711D33
:1014D000811D911DA11D20D009F468943F912AE03F
:1014E000269F11243019305D3193DEF6CF01089527
:1014F000462F4770405D4193B3E00FD0C9F7F6CF58
:10150000462F4F70405D4A3318F0495D31FD40521F
:10151000419302D0A9F7EACFB4E0A69597958795B5
:1015200077956795BA95C9F7009761057105089594
:101530009B01AC010A2E0694579547953795279540
:10154000BA95C9F7620F731F841F951FA01D0895D8
:04155000F894FFCF3D
:1015540041544D6567613332385020342D626974CB
:10156400204C434420746573742E004C434420344F
:101574002D62697420746573743A0048656C6C6FED
:101584002C20576F726C642100667265713A2025B5
:101594006C752025660A00252E3266004361706151
:0A15A400636974616E63653A00002C
:00000001FF
