:100000000C9434000C9451000C9451000C94510049
:100010000C9451000C9451000C9451000C9451001C
:100020000C9451000C9451000C9451000C9451000C
:100030000C9451000C9451000C9451000C945100FC
:100040000C9451000C9451000C9451000C945100EC
:100050000C9451000C9451000C9451000C945100DC
:100060000C9451000C94510011241FBECFEFD8E026
:10007000DEBFCDBF11E0A0E0B1E0EEE8FEE002C0DF
:1000800005900D92A434B107D9F721E0A4E4B1E0C2
:1000900001C01D92A23BB207E1F70E94BC010C9483
:1000A00045070C940000519A50981092C50080E1C9
:1000B0008093C400E1ECF0E08081886080838081DF
:1000C0008061808386E08093C200E0ECF0E0808174
:1000D0008260808308958091C00087FFFCCF80916B
:1000E000C60008959091C00095FFFCCF8093C60094
:1000F0000895CF93DF93EC018991882319F00E9432
:100100007200FACFDF91CF910895CF93DF9384E40B
:1001100091E09093A9018093A801C091A801D0918A
:10012000A9010E946B0088838D3031F02196D09315
:10013000A901C093A801F1CF188284E491E0DF9176
:10014000CF910895209A8AB1886D8AB90895CF9386
:10015000DF93EA010E9442032BE734E14EE85FE3BC
:100160000E94D0039B01AC0160E078EC8FEA99E437
:100170000E94D00220E03CE449E956E40E94630278
:10018000688379838A839B83DF91CF910895CF938E
:10019000DF93EA010E94420322E63CE04AE85EE384
:1001A0000E94D00320E030E04AE754E40E94D002ED
:1001B0009B01AC0160E070E080E89FE30E94D00208
:1001C00020E030E04AE754E40E94D003688379835A
:1001D0008A839B83DF91CF910895CF93DF93EA01C8
:1001E000A7E1B3E79B01AC010E9449020E944203D0
:1001F0009B01AC0160E078EC8FEA99E40E94D002A8
:1002000020E030E04AE754E40E94D0036883798319
:100210008A839B83DF91CF9108955C9A85ED8A95BF
:10022000F1F700005C980895CF93DF931F92CDB74C
:10023000DEB787FF02C0289A01C0289886FF02C057
:100240005F9A01C05F9885FF02C05E9A01C05E9808
:1002500084FF02C05D9A01C05D9889830E940D01F0
:1002600095ED9A95F1F70000898183FF02C0289AE5
:1002700001C0289882FF02C05F9A01C05F9881FF89
:1002800002C05E9A01C05E9880FF02C05D9A01C004
:100290005D980F90DF91CF910C940D015B9A0E94B5
:1002A00014018FE39FE10197F1F700C0000008956A
:1002B0005B980E9414018FE19EE40197F1F700C062
:1002C000000008955C982FEF89EF90E02150804066
:1002D0009040E1F700C0000083E30E94580183E3EF
:1002E0000E94580182E30E94580188E20E9458014E
:1002F0008CE00E94580181E00E9458012FEF89EFA5
:1003000090E0215080409040E1F700C00000089547
:10031000DF92EF92FF920F931F93CF93DF937C01B5
:10032000D42E623011F080E801C080EC0E945801A8
:100330008FE19EE40197F1F700C000008701E8011A
:10034000CE19DF09F80181918F01882319F00E94ED
:100350004E01F5CFDD2041F0C031D1052CF480E213
:100360000E944E012196F8CFDF91CF911F910F91FE
:10037000FF90EF90DF900895CF93DF93CDB7DEB776
:1003800061970FB6F894DEBF0FBECDBF0E94530039
:100390002FE986E891E0215080409040E1F700C0CD
:1003A000000080E091E00E943D0441E061E08BE1CB
:1003B00091E00E94880141E062E08BE291E00E94BE
:1003C0008801DD24D39437E0C32E49E3E42E41E0D5
:1003D000F42E8E010F5F1F4F55985D98109280008C
:1003E00010928100109280001092AB011092AA012D
:1003F0001092850010928400D6BAD0926F00789443
:10040000C09281002FE38DE093E021508040904026
:10041000E1F700C00000109281002FB7F8944091DE
:10042000AA015091AB018091840090918500B09B0E
:1004300006C04F5F5F4F80918400909185002FBF71
:1004400010926F0060E070E0BA0155274427A0E0E9
:10045000B0E0482B592B6A2B7B2B7F936F935F93D4
:100460004F93FF92EF921F930F930E946D04C80168
:100470000E9479002FE986E891E021508040904069
:10048000E1F700C000000FB6F894DEBF0FBECDBF8D
:10049000A3CF0E945402A59F900DB49F900DA49FDE
:1004A000800D911D11240895A29FB001B39FC0013A
:1004B000A39F700D811D1124911DB29F700D811D90
:1004C0001124911D08955058BB27AA270E947B0232
:1004D0000C9496030E94880338F00E948F0320F04A
:1004E00039F49F3F19F426F40C9485030EF4E0953B
:1004F000E7FB0C947F03E92F0E94A70358F3BA1778
:10050000620773078407950720F079F4A6F50C9429
:10051000C9030EF4E0950B2EBA2FA02D0B01B901E3
:1005200090010C01CA01A0011124FF27591B99F069
:10053000593F50F4503E68F11A16F040A22F232F75
:10054000342F4427585FF3CF469537952795A795C5
:10055000F0405395C9F77EF41F16BA0B620B730B6C
:10056000840BBAF09150A1F0FF0FBB1F661F771FDD
:10057000881FC2F70EC0BA0F621F731F841F48F492
:10058000879577956795B795F7959E3F08F0B0CF1B
:100590009395880F08F09927EE0F97958795089502
:1005A0000E94E4020C9496030E948F0358F00E946C
:1005B000880340F029F45F3F29F00C947F03511128
:1005C0000C94CA030C9485030E94A70368F3992333
:1005D000B1F3552391F3951B550BBB27AA2762173F
:1005E0007307840738F09F5F5F4F220F331F441F4C
:1005F000AA1FA9F335D00E2E3AF0E0E832D0915080
:100600005040E695001CCAF72BD0FE2F29D0660F6C
:10061000771F881FBB1F261737074807AB07B0E8AF
:1006200009F0BB0B802DBF01FF2793585F4F3AF0B5
:100630009E3F510578F00C947F030C94CA035F3FF2
:10064000E4F3983ED4F3869577956795B795F7953B
:100650009F5FC9F7880F911D9695879597F9089523
:10066000E1E0660F771F881FBB1F621773078407BF
:10067000BA0720F0621B730B840BBA0BEE1F88F7CE
:10068000E0950895E89409C097FB3EF49095809515
:10069000709561957F4F8F4F9F4F9923A9F0F92F48
:1006A00096E9BB279395F695879577956795B795C6
:1006B000F111F8CFFAF4BB0F11F460FF1BC06F5FAC
:1006C0007F4F8F4F9F4F16C0882311F096E911C0BE
:1006D000772321F09EE8872F762F05C0662371F0DF
:1006E00096E8862F70E060E02AF09A95660F771FF3
:1006F000881FDAF7880F9695879597F9089597F9E7
:100700009F6780E870E060E008959FEF80EC0895B7
:1007100000240A94161617061806090608950024E0
:100720000A9412161306140605060895092E03945A
:10073000000C11F4882352F0BB0F40F4BF2B11F4CE
:1007400060FF04C06F5F7F4F8F4F9F4F089557FD2D
:100750009058440F551F59F05F3F71F04795880F2F
:1007600097FB991F61F09F3F79F0879508951216C6
:1007700013061406551FF2CF4695F1DF08C0161672
:1007800017061806991FF1CF869571056105089423
:100790000895E894BB2766277727CB0197F908953A
:1007A0000E94E3030C9496030E94880338F00E9491
:1007B0008F0320F0952311F00C947F030C94850394
:1007C00011240C94CA030E94A70370F3959FC1F3F0
:1007D000950F50E0551F629FF001729FBB27F00DEF
:1007E000B11D639FAA27F00DB11DAA1F649F662744
:1007F000B00DA11D661F829F2227B00DA11D621F93
:10080000739FB00DA11D621F839FA00D611D221F4C
:10081000749F3327A00D611D231F849F600D211D30
:10082000822F762F6A2F11249F5750409AF0F1F0B3
:1008300088234AF0EE0FFF1FBB1F661F771F881F1C
:1008400091505040A9F79E3F510580F00C947F03D2
:100850000C94CA035F3FE4F3983ED4F386957795F2
:100860006795B795F795E7959F5FC1F7FE2B880FC2
:10087000911D9695879597F908950F931F93CF93A0
:10088000DF93E091AE01F091AF01238121FF1BC006
:100890008C01D0E0C0E0F80181918F016091AE0140
:1008A0007091AF01DB011896ED91FC9119978823A7
:1008B00031F00995892B79F3DFEFCFEFECCF8AE0A8
:1008C0000995892B19F08FEF9FEF02C08D2F9C2F78
:1008D000DF91CF911F910F910895AEE0B0E0E3E773
:1008E000F4E00C941C070D891E8986E08C831A8322
:1008F00009838FEF9FE79E838D83AE01475E5F4F35
:100900006F89788DCE0101960E9490042F813885E1
:10091000F801E20FF31F10822E96E4E00C943807E2
:10092000ACE0B0E0E6E9F4E00C940E077C016B016A
:100930008A01FC0117821682838181FFBDC1CE012D
:1009400001964C01F7019381F60193FD859193FF88
:1009500081916F01882309F4ABC1853239F493FD8D
:10096000859193FF81916F01853229F4B70190E061
:100970000E947806E7CF512C312C20E02032A0F4E1
:100980008B3269F030F4803259F0833269F420619F
:100990002CC08D3239F0803339F4216026C02260BA
:1009A000246023C0286021C027FD27C030ED380F08
:1009B0003A3078F426FF06C0FAE05F9E300D11242D
:1009C000532E13C08AE0389E300D1124332E20623E
:1009D0000CC08E3221F426FD6BC1206406C08C361B
:1009E00011F4206802C0883641F4F60193FD859128
:1009F00093FF81916F018111C1CF982F9F7D9554F5
:100A0000933028F40C5F1F4FFFE3F9830DC083364A
:100A100031F0833771F0833509F05BC022C0F801F3
:100A2000808189830E5F1F4F44244394512C5401CD
:100A300015C03801F2E06F0E711CF801A080B18082
:100A400026FF03C0652D70E002C06FEF7FEFC50188
:100A50002C870E946D062C0183012C852F77222E76
:100A600017C03801F2E06F0E711CF801A080B18050
:100A700026FF03C0652D70E002C06FEF7FEFC50158
:100A80002C870E9462062C012C852068222E83016F
:100A900023FC1BC0832D90E048165906B0F4B70123
:100AA00080E290E00E9478063A94F4CFF50127FCAA
:100AB000859127FE81915F01B70190E00E94780641
:100AC00031103A94F1E04F1A51084114510471F772
:100AD000E5C0843611F0893639F5F80127FF07C0E3
:100AE00060817181828193810C5F1F4F08C060819A
:100AF0007181072E000C880B990B0E5F1F4F2F760C
:100B0000722E97FF09C090958095709561957F4FE3
:100B10008F4F9F4F2068722E2AE030E0A4010E9480
:100B2000B006A82EA81844C0853729F42F7EB22E0F
:100B30002AE030E025C0F22FF97FBF2E8F36C1F0BA
:100B400018F4883579F0B4C0803719F0883721F06F
:100B5000AFC02F2F2061B22EB4FE0DC08B2D84604C
:100B6000B82E09C024FF0AC09F2F9660B92E06C078
:100B700028E030E005C020E130E002C020E132E0B2
:100B8000F801B7FE07C060817181828193810C5F9B
:100B90001F4F06C06081718180E090E00E5F1F4FA3
:100BA000A4010E94B006A82EA818FB2DFF777F2E67
:100BB00076FE0BC0372D3E7FA51450F474FE0AC09C
:100BC00072FC08C0372D3E7E05C0BA2C372D03C0FD
:100BD000BA2C01C0B52C34FF0DC0FE01EA0DF11D89
:100BE0008081803311F4397E09C032FF06C0B3948E
:100BF000B39404C0832F867809F0B39433FD13C0F7
:100C000030FF06C05A2CB31418F4530C5B18B32CE5
:100C1000B31468F4B70180E290E03C870E94780644
:100C2000B3943C85F5CFB31410F43B1801C0312CBC
:100C300034FF12C0B70180E390E03C870E94780641
:100C40003C8532FF17C031FD03C088E790E002C049
:100C500088E590E0B7010CC0832F867859F031FF0A
:100C600002C08BE201C080E237FD8DE2B70190E067
:100C70000E947806A51438F4B70180E390E00E9442
:100C800078065A94F7CFAA94F401EA0DF11D8081F9
:100C9000B70190E00E947806A110F5CF332009F447
:100CA00051CEB70180E290E00E9478063A94F6CFE8
:100CB000F7018681978102C08FEF9FEF2C96E2E1CA
:100CC0000C942A07FC010590615070400110D8F780
:100CD000809590958E0F9F1F0895FC016150704084
:100CE00001900110D8F7809590958E0F9F1F089561
:100CF0000F931F93CF93DF93FB01238121FD03C04B
:100D00008FEF9FEF28C022FF16C0468157812481B4
:100D100035814217530744F4A081B1819D012F5FB3
:100D20003F4F318320838C93268137812F5F3F4F44
:100D30003783268310C0EB01092F182F0084F1851B
:100D4000E02D0995892BE1F68E819F8101969F8385
:100D50008E83812F902FDF91CF911F910F91089556
:100D6000FA01AA27283051F1203181F1E8946F93DC
:100D70006E7F6E5F7F4F8F4F9F4FAF4FB1E03ED082
:100D8000B4E03CD0670F781F891F9A1FA11D680F20
:100D9000791F8A1F911DA11D6A0F711D811D911D53
:100DA000A11D20D009F468943F912AE0269F1124C8
:100DB0003019305D3193DEF6CF010895462F47702C
:100DC000405D4193B3E00FD0C9F7F6CF462F4F7087
:100DD000405D4A3318F0495D31FD4052419302D0E5
:100DE000A9F7EACFB4E0A69597958795779567958B
:100DF000BA95C9F700976105710508959B01AC018B
:100E00000A2E06945795479537952795BA95C9F7B1
:100E1000620F731F841F951FA01D08952F923F928C
:100E20004F925F926F927F928F929F92AF92BF92FA
:100E3000CF92DF92EF92FF920F931F93CF93DF93A6
:100E4000CDB7DEB7CA1BDB0B0FB6F894DEBF0FBE03
:100E5000CDBF09942A88398848885F846E847D8450
:100E60008C849B84AA84B984C884DF80EE80FD8052
:100E70000C811B81AA81B981CE0FD11D0FB6F894C8
:0E0E8000DEBF0FBECDBFED010895F894FFCF89
:100E8E0041544D6567613332385020342D62697498
:100E9E00204C434420746573742E004C434420341C
:100EAE002D62697420746573743A0048656C6C6FBA
:100EBE002C20576F726C642100667265713A202582
:040ECE00750A0000A1
:00000001FF
